:03000000020B7080
:0C0B7000787FE4F6D8FD75812E020BB7EB
:100CD60011083F065B4F666D7D077F6F777C395E37
:070CE6007971000219000002
:10080000E4F51BF51CF51DF51EF520752101F523FA
:10081000F524120CFC752201751F01120C668F1B4A
:10082000E522640160030208D7E52CB44519E51FF1
:10083000B40114E4F51FE51A451970047F01800224
:100840007F007519008F1AE51F701BE52C6440604E
:1008500015E52C6443600FE52C64446009E52C64C5
:10086000456003751F01E51A640145196003020A1A
:100870002FAF1D051DAD1C120BFCE51DB40803E4D4
:10088000F51DAF217E00120CB8E52CB44417E51F0E
:10089000B40112E4F51FE51C70047F0180027F00A3
:1008A0008F1C020A23E52CB44314E51FB4010FE4A6
:1008B000F51FE521D39401401B1521020A23E52CE5
:1008C000B44011E51FB4010CE4F51FE521C3940504
:1008D00050020521020A23E51BB40111E51A45194E
:1008E00070047F0180027F007519008F1AE51A6479
:1008F0000145196003020A2FAF1D051DAD1C120B27
:10090000FCE51DB40803E4F51DAF217E00120CB810
:10091000E51BB4040FE51C70047F0180027F008F8B
:100920001C020A23E51BB4020FE521D394015003F6
:10093000020A231521020A23E51BB4030FE521C394
:1009400094054003020A230521020A23E51B6405DE
:100950006003020A23852120E50EF4F5807521014C
:10096000752401E4F523AF1D051DAD1C120BFCE53C
:100970001DB40803E4F51DAF247E00120CB8052356
:10098000E523D3946440DF0524E524D3940540D3C4
:10099000752405E4F523AF1D051DAD1C120BFCE508
:1009A0001DB40803E4F51DAF247E00120CB8052326
:1009B000E523D3946440DF1524E524C3940150D388
:1009C000752401E4F523AF1D051DAD1C120BFCE5DC
:1009D0001DB40803E4F51DAF247E00120CB80523F6
:1009E000E523D3946440DF0524E524D3940540D364
:1009F000752405E4F523AF1D051DAD1C120BFCE5A8
:100A00001DB40803E4F51DAF247E00120CB80523C5
:100A1000E523D3946440DF1524E524C3940150D327
:100A20008520217F017E00120CB885211E8003E401
:0E0A3000F51E7408251EF8E6F4F58002081580
:100CB800D3EF9400EE940040147D6E7C00ED1D701F
:0D0CC800011CED4C70F7EF1F70E61E80E37D
:010CD50022FC
:0B0CF100EF1FAC0670011E4C70F622D5
:100BFC00AE07ED7005C374079FFEEEB408005051AC
:100C0C00900C13F8282873020C2B020C2F020C33B7
:100C1C00020C39020C42020C48020C4E020C54D24B
:100C2C00908030D2908002C290C2918004C290D247
:100C3C0091D292C29322C290D2918019C290D29139
:100C4C00800AC290C2918004D290C291C292D29377
:090C5C0022C290C291C292C2931F
:010C6500226C
:030CED00012E01D4
:100C6600E52E6401703730B10C30B00930B406306F
:100C7600B30320B5287F0A7E00120CB8E4F52E20B7
:100C8600B1037F012220B0037F022220B4037F0339
:100C96002220B3037F042220B5157F052230B10F31
:100CA60030B00C30B40930B30630B503752E017F71
:010CB600003D
:010CB700221A
:090CFC00D288D2A8D2AFD2B222F4
:03000300020A3EB0
:100A3E00C0E0C0F0C083C082C0D075D000C000C07E
:0D0A4E0001C002C003C004C005C006C007FF
:100A5B00752500752600752700752800752900304F
:100A6B00B203020B557526037527E820B21EE52746
:100A7B00452660187F017E00120CF1E527152770C3
:100A8B00021526E527452670E2020B5520B203021C
:100A9B000B3D7526017527F430B21EE52745266000
:100AAB00187F017E00120CF1E52715277002152621
:100ABB00E527452670E2020B557528007529007550
:100ACB00260275275820B21DE527452660177F01A2
:100ADB007E00120CF1E527152770021526E5274538
:100AEB002670E2806575260075271430B2127F0AD6
:100AFB007E00120CF10525E525D3941440ED804AB8
:100B0B00742A2528F8C000E6C313D000F6E525C3E8
:100B1B0094084009742A2528F8E64480F6752500C8
:100B2B000529E529C3940840960528E528C39404B4
:100B3B00408AE52DF4652C6011752800742A252850
:0A0B4B00F876000528E528B404F24E
:100B5500D007D006D005D004D003D002D001D000F4
:0B0B6500D0D0D082D083D0F0D0E0329E
:100B7C00020800E493A3F8E493A34003F68001F287
:100B8C0008DFF48029E493A3F85407240CC8C3337A
:100B9C00C4540F4420C8834004F456800146F6DF49
:100BAC00E4800B0102040810204080900CD6E47EF7
:100BBC00019360BCA3FF543F30E509541FFEE4933E
:100BCC00A360010ECF54C025E060A840B8E493A305
:100BDC00FAE493A3F8E493A3C8C582C8CAC583CA30
:100BEC00F0A3C8C582C8CAC583CADFE9DEE780BEE8
:010CF0000003
:00000001FF
